:020000040800F2
:100000000050002089340008A5730208AF7302086D
:1000100000000000000000000000000000000000E0
:10002000000000000000000000000000B77302089C
:100030000000000000000000C1730208CB7302083A
:10004000D9340008D9340008ED730208D934000807
:10005000D9340008FB7302081174020827740208DF
:10006000D9340008D9340008D9340008E3730208F1
:10007000D9340008D9340008D9340008D93400082C
:10008000D9340008D9340008D93400080000000031
:10009000D9340008D9340008D9340008D93400080C
:1000A000D9340008D9340008D9340008D9730208BB
:1000B000D9340008D93400080000000099740208FF
:1000C00010B5064C2378002B07D1054B002B02D02E
:1000D000044800E000BF0123237010BD000700208A
:1000E00000000000B0930208044B10B5002B03D0B1
:1000F0000349044800E000BF10BDC04600000000F6
:1001000004070020B093020803B471464908400078
:100110004900095E49008E4403BC70470022430831
:100120008B4274D303098B425FD3030A8B4244D3BF
:10013000030B8B4228D3030C8B420DD3FF22090201
:1001400012BA030C8B4202D31212090265D0030BC0
:100150008B4219D300E0090AC30B8B4201D3CB03B6
:10016000C01A5241830B8B4201D38B03C01A5241F8
:10017000430B8B4201D34B03C01A5241030B8B42FA
:1001800001D30B03C01A5241C30A8B4201D3CB02E5
:10019000C01A5241830A8B4201D38B02C01A5241CA
:1001A000430A8B4201D34B02C01A5241030A8B42CD
:1001B00001D30B02C01A5241CDD2C3098B4201D3E5
:1001C000CB01C01A524183098B4201D38B01C01A63
:1001D000524143098B4201D34B01C01A52410309DA
:1001E0008B4201D30B01C01A5241C3088B4201D389
:1001F000CB00C01A524183088B4201D38B00C01A36
:10020000524143088B4201D34B00C01A5241411A5C
:1002100000D20146524110467047FFE701B5002069
:1002200000F0F0F802BDC0460029F7D076E770472D
:1002300003460B437FD4002243088B4274D3030947
:100240008B425FD3030A8B4244D3030B8B4228D3E8
:10025000030C8B420DD3FF22090212BA030C8B420E
:1002600002D31212090265D0030B8B4219D300E0AE
:10027000090AC30B8B4201D3CB03C01A5241830B33
:100280008B4201D38B03C01A5241430B8B4201D3E3
:100290004B03C01A5241030B8B4201D30B03C01A0C
:1002A0005241C30A8B4201D3CB02C01A5241830A86
:1002B0008B4201D38B02C01A5241430A8B4201D3B5
:1002C0004B02C01A5241030A8B4201D30B02C01ADF
:1002D0005241CDD2C3098B4201D3CB01C01A524146
:1002E00083098B4201D38B01C01A524143098B42CF
:1002F00001D34B01C01A524103098B4201D30B01B8
:10030000C01A5241C3088B4201D3CB00C01A5241DC
:1003100083088B4201D38B00C01A524143088B42A1
:1003200001D34B00C01A5241411A00D2014652413A
:10033000104670475DE0CA0F00D04942031000D359
:100340004042534000229C4603098B422DD3030AAE
:100350008B4212D3FC22890112BA030A8B420CD3BE
:10036000890192118B4208D3890192118B4204D3E7
:1003700089013AD0921100E08909C3098B4201D367
:10038000CB01C01A524183098B4201D38B01C01AA1
:10039000524143098B4201D34B01C01A5241030918
:1003A0008B4201D30B01C01A5241C3088B4201D3C7
:1003B000CB00C01A524183088B4201D38B00C01A74
:1003C0005241D9D243088B4201D34B00C01A52414B
:1003D000411A00D20146634652415B10104601D3D8
:1003E0004042002B00D54942704763465B1000D362
:1003F000404201B5002000F005F802BD0029F8D008
:1004000016E770477047C0468446101C62468C460B
:10041000191C634600E0C0461FB501F0E3FF002849
:1004200001D40021C8421FBD10B501F02DFF40428C
:10043000013010BD10B501F0D5FF002801DB002010
:1004400010BD012010BDC04610B501F0CBFF002843
:1004500001DD002010BD012010BDC04610B501F027
:100460004FFF002801DC002010BD012010BDC04658
:1004700010B501F045FF002801DA002010BD012071
:1004800010BDC0468446081C6146FFE71FB500F05A
:10049000DBFC002801D40021C8421FBD10B500F0CC
:1004A0005FFC4042013010BD10B500F0CDFC0028CB
:1004B00001DB002010BD012010BDC04610B500F0CA
:1004C000C3FC002801DD002010BD012010BDC04686
:1004D00010B500F06DFC002801DC002010BD0120EB
:1004E00010BDC04610B500F063FC002801DA002002
:1004F00010BD012010BDC046002B15D1002A13D11C
:10050000002906DB01DC002806D00020C04341089A
:1005100002E080210906002007B4024801A140182A
:10052000029003BDE1FEFFFF03B4684601B50298E7
:1005300000F050F9019B9E4602B00CBC7047C046CB
:10054000002B11D1002A0FD1002900D1002802D0A0
:100550000021C943081C07B4024802A140180290B8
:1005600003BDC046A1FEFFFF03B4684601B5029873
:1005700000F064F8019B9E4602B00CBC7047C04678
:10058000F0B515042D0C0F0001002E00C646844660
:100590000004140C000C090C46434D4360436143B6
:1005A0004019340C241800B5A54203D9802040021C
:1005B00080464144250C6D18614659437A43300406
:1005C00049192404000C2018891880BCB846F0BDD5
:1005D0009E2110B5C905041CFFF784FF002803D134
:1005E000201C00F05DFF10BD9E21201CC90500F0FD
:1005F0008FFD00F055FF80231B069C466044F2E708
:1006000070B500220C4B04000D00FFF731FF0028ED
:1006100004D12000290002F053FD70BD064B0022DA
:100620002000290002F0BAF902F04AFD80231B06DF
:100630009C466044F1E7C0460000E041F0B55746F3
:100640004E464546DE46E0B504000D00924699460A
:1006500083B08B4230D82DD04946504602F022FE5E
:1006600029000600200002F01DFE331A9846203BA8
:100670009B4633D45A465346934042461F00534646
:1006800093401E00AF423AD8AF4200D178E05B46BB
:10069000A41BBD41002B00DA75E00022002300926C
:1006A000019301235A46934001930123424693400C
:1006B000009328E08242CFD90022002300920193C8
:1006C0000C9B002B01D01C605D600098019903B069
:1006D000F0BCBB46B246A946A046F0BD4246202328
:1006E0009B1A5246DA40414613004A468A40170098
:1006F00042461F43534693401E00AF42C4D90022D6
:100700000023009201934346002BD9D0FB077208C7
:100710001A4346467B080EE0AB4201D1A2420CD8F8
:10072000A41A9D41012024196D410021013E241885
:100730004D41002E06D0AB42EED9013E24196D4149
:10074000002EF8D1009801995B4600196941002BF1
:1007500024DB2B005A464446D3402A00E2401C00CA
:100760005B461500002B2ADB26009E403300260046
:100770004746BE403200801A9941009001919FE7A0
:10078000A342BCD883E74246202300219B1A0022C3
:10079000009101920122DA40019286E7424620232D
:1007A0009B1A2A0046469A402300F34044461343CE
:1007B0002A00E2401C005B461500002BD4DA4246BA
:1007C0002F002023260097409B1ADE403B00334336
:1007D000CDE7C046F8B5CE46474680B59146984627
:1007E00004000D0002F06AFD07000E0002000B007D
:1007F00048464146FFF7C4FE241A8D41089B380045
:1008000031001C605D60C0BCB946B046F8BDC04652
:10081000F0B54646D6464F464D024202C0B5520A92
:100820006E0A4700B0463F0E4E00C40FD0009446FB
:100830003B008246360EC90FAD098C426DD0B81B05
:10084000814600284DDD002E00D188E0FF2F5AD0D0
:100850008023DB041D434B4601221B2B0ADC2B00AB
:100860004A464946D3402022521A95402A00551E36
:10087000AA411A4353469A1A530100D4B9E092018F
:100880009609300002F0F0FC05388640874200DD12
:10089000D4E03300C71B20200137FB40C71BBE40FC
:1008A0003200561EB24100271A43530704D00F23CB
:1008B0001340042B00D00432530100D49CE07B1C75
:1008C000FE2F00D19AE09201520A9446DBB2D8057D
:1008D0006346E40718432043E0BCBA46B146A84645
:1008E000F0BD002849D0F31B002F00D0B6E05246DF
:1008F000002A60D0013B002B00D1FCE0FF2E00D08D
:10090000B4E00C004246002A78D08020C003104397
:100910004202530A9C46FF23D9E7B91B002971DD27
:10092000002E3FD0FF2FEED08023DB041D43012299
:100930001B2907DC2A002023CA40591A8D406B1E50
:100940009D412A435244530153D50137FF2F55D0BF
:1009500001237B49134052080A401A43A5E7002DA2
:100960002CD001235B429C46E1444B46002B00D136
:10097000ADE0FF2F00D06EE7C5E7FE207E1C3042C1
:1009800060D1002F00D093E05246002A00D1B6E09B
:10099000002D9CD0521B500100D4C3E053460C00E4
:1009A000EA1A82E7002D09D00139002900D18BE035
:1009B000FF2FBCD1A7E70C0042463700FF2FA2D083
:1009C0005202530A9C46FBB281E7FE2101373942AD
:1009D00065D1002B7ED1002800D1AAE0002D00D1E6
:1009E00075E72A0052440027530102D5554B0137C1
:1009F0001A40530700D05AE7D208DFE70022FF234E
:100A0000944664E70029E0D0F31B002F3ED0FF2E70
:100A100000D177E780220100D20411438A460122E7
:100A20001B2B08DC524620215046DA40CB1A984056
:100A3000431E984102433700521984E7414A3F1A46
:100A4000324032E753465E1B73012DD4002E00D096
:100A500017E7002200240023944638E7FF2E00D138
:100A60004FE780225046D2041043824601221B2BBE
:100A700008DC524620245046DA40E31A9840431ED0
:100A8000984102430C003700AA1AF5E6002893D0DB
:100A9000013B002B4FD0FF2EC1D1424633E7FF2F41
:100AA000ACD055446A08A4E753460C00EE1AE8E6B9
:100AB0005346002B28D1002D00D022E78023DB03F2
:100AC0009C460024FF2302E72A0052443BE753469A
:100AD0005A1BD1E6002800D114E7002D00D112E7FF
:100AE0008023DB031A4200D10DE74146194200D0B2
:100AF00009E7424607E70C003700AA1ABCE6002DBA
:100B000013D00C00C446E2E6002D00D1FBE68023A2
:100B1000DB031A4200D1F6E64046184200D0F2E666
:100B20000C00EFE6002A00D063E700220024944680
:100B3000CDE6C446CBE62A003700524403E7C04660
:100B4000FFFFFF7DFFFFFFFBF0B54F464646D64651
:100B50004502C0B547000C1C6D0A3F0EC60F002FA2
:100B600066D0FF2F6CD00023EA00802599469A4674
:100B7000ED0415437F3F60026100430A9846090E69
:100B8000E40F002948D0FF2910D08022D800D204D9
:100B90000243904600207F394A4633007F1A0243C1
:100BA0006C4992008A586340DBB29746002B6DD1A6
:100BB0000220FF3F33E00023984626004546824648
:100BC0005346022B00D17FE0032B00D194E0012B90
:100BD00017D038007F3000285FDD6B0704D00F236B
:100BE0002B40042B00D004352B0103D538005A4B81
:100BF00080301D40FE2867DCAD016D0AC0B202E006
:100C00001E0000200025C0052843F6073043E0BC45
:100C1000BA46B146A846F0BD002B2BD101204A466A
:100C200033004E49024392008A586340DBB2974634
:100C3000002D13D104239946033B00279A469AE7D7
:100C4000002D05D108239946063BFF279A4692E7D7
:100C50000C239946093BFF279A468CE7280002F0AF
:100C600003FB7627431F9D4000237F4299469A4607
:100C70003F1A80E7180002F0F7FA4246431F762138
:100C80009A404942091A9046002085E7FF21032037
:100C900082E71E00FF200025B5E701231B1A1B2B4E
:100CA000AFDC9E372900BD40D9406A1E95410D43F7
:100CB0006B0704D00F232B40042B00D004356B01AD
:100CC00044D5012000259EE7FF2000259BE78025D5
:100CD0000026FF20ED0396E7002398468020C003FE
:100CE000054209D04346034206D1454605436D02FD
:100CF0002600FF206D0A86E78020C00305436D02B1
:100D0000FF206D0A7FE741466A014801824219D2FD
:100D10001B210025013F012614006D005200002C0C
:100D200001DB904201D8121A354301390029F3D171
:100D3000501E824138007F301E001543002800DD20
:100D40004BE7AAE71A210125121AE4E7AD010020BA
:100D50006D0A58E794A60208FFFFFFF7D4A6020821
:100D600070B542004E024C0045026D0A120EC30FD0
:100D7000760A240EC90FFF2A0FD0FF2C11D00120B4
:100D8000A24200D070BDB542FCD18B420DD0002AEA
:100D9000F8D12800451EA841F4E70120002DF1D12B
:100DA000EBE70120002EEDD1E9E70020EAE7C0469D
:100DB000F0B5420046024D024C00C30F760A120EF7
:100DC0006D0A240EC80FFF2A1FD0FF2C10D0002A56
:100DD0001FD171427141002C01D1002D1ED000297C
:100DE0000ED183421ED00221581E08400138F0BDAA
:100DF000002D26D1002AF4D1714271410029F0D092
:100E00000028F4D101204042F1E7002E19D1FF2C37
:100E1000EED0002CE5D1002DE3D1E4E70020002E38
:100E2000E5D0E0E7A24205DCEADBAE4202D8E7D338
:100E30000020DCE74142414148420221084001389C
:100E4000D5E702204042D2E7F0B5420046024D020B
:100E50004C00C30F760A120E6D0A240EC80FFF2A2B
:100E60000DD0FF2C0FD0002A23D171427141002CEC
:100E70000FD1002D0DD10020002E14D00DE0002E3A
:100E800010D1FF2C15D1002D0CD1002A03D17142B5
:100E90007141002908D1834210D00221581E084018
:100EA000013800E00220F0BD0028FCD101204042C2
:100EB000F9E7002CEFD1002DEDD1EEE7A24205DCE1
:100EC000F2DBAE4202D8EFD30020ECE741424141D1
:100ED0004842022108400138E5E7C046F8B55746C8
:100EE0004E464546DE464402E0B545000F1C640A06
:100EF0002D0EC60F002D47D0FF2D4DD00023802092
:100F00009A469B46E400C00404437F3D7802430AAE
:100F100099467A00FB0F9846120E4B4644D0FF2AA2
:100F200011D0D8008023DB040343994600207F3A88
:100F3000AD18474653467740691C0F2B3FD8724A7D
:100F40009B00D3589F46FF35002B00D079E05246D6
:100F500002231A4392460220EBE747464C4683465B
:100F60005B46022B28D0032B00D1C6E0012B4FD1CA
:100F700000200024C005FF0720433843F0BCBB46D7
:100F8000B246A946A046F8BD002C71D104239A466A
:100F9000033B00259B46B9E7002C63D108239A4602
:100FA000063BFF259B46B1E7002B50D1524601334B
:100FB0001A4392460120BCE7FF200024DAE74846A6
:100FC000260C2404220C0404240C4B4620001B0C89
:100FD000504374435A435E431219030C9B189C42BE
:100FE00003D9802252029446664400041A04000C7D
:100FF00012189401601E84411B0C920E9B1914431D
:101000009B011C431B0172D50120630804401C4353
:1010100008007F3000283CDD630704D00F23234005
:10102000042B00D00434230103D580310800374B52
:101030001C40FE28C0DCA401640AC0B29AE7370055
:101040008EE7524603231A439246032071E748462F
:1010500002F00AF94A46431F9A402D1A9146002091
:10106000763D66E70C239A46093BFF259B464DE7F4
:10107000200002F0F9F87625431F9C4000236D42C2
:101080009A469B462D1A41E780240027FF20E4035F
:1010900070E701231B1A1B2B00DD69E79E3120003E
:1010A0008C40D840631E9C410443630704D00F2347
:1010B0002340042B00D0043463011AD501200024FE
:1010C00058E78020C003044209D04B46034206D1B2
:1010D0004C46044364024746FF20640A4AE78020E6
:1010E000C003044364023700FF20640A42E729007A
:1010F0008EE7A4010020640A3CE78020C00304437B
:101100006402FF20640A35E714A70208FFFFFFF717
:10111000F0B54646D6464F4643025B0ADA0094468F
:101120004A02C0B54400560A051CB046240E4E00C3
:1011300092091F0020009246ED0F360EC90FFF2EB8
:1011400000D17FE0012251408D4251D0A21B914637
:10115000002A00DC7EE0002E00D199E0FF2C00D1B7
:101160008CE080235246DB041A4392464A46012310
:101170001B2A08DC53462021D340891A52468A4054
:10118000511E8A4113436246D31A5A0100D4F3E038
:101190009B019E09300002F067F8053886408442C2
:1011A00000DDF7E03200041B20200134E240041B84
:1011B000A64033005E1EB341002413435A0704D0F7
:1011C0000F221A40042A00D004335A0100D4D6E07A
:1011D000621CFE2C00D1DAE09B015F0AD0B2C00590
:1011E0003843ED072843E0BCBA46B146A846F0BDF7
:1011F000A21B9146002A63DD002E00D199E0FF2C4E
:101200003CD080235246DB041A4392464A460123CF
:101210001B2A08DC53462021D340891A52468A40B3
:10122000511E8A41134363445A0100D4A4E001349F
:10123000FF2C00D1ABE0012297491A405B080B401C
:101240001343BBE7002A32D08D4235D0FF225242F1
:101250009146A1444A46002A51D0301B002C00D0B0
:101260009CE06346002B00D1DFE00138002800D16C
:10127000F7E0FF2E00D099E00D004346002B00D18F
:1012800085E08027FF031F437F02FF207F0AA6E738
:101290005246002A74D0012252429046C1444A4626
:1012A000002A00D1C8E0FF2C00D05FE7E6E701226A
:1012B0005140A94200D049E7FF2252429146A14441
:1012C0004A46002A43D0311B002C00D18CE0FF2E6F
:1012D00000D192E080236246DB041A439446012346
:1012E0001B2909DC202063466246CB40411A8A4014
:1012F0001100481E81410B433400534494E7FE2201
:10130000661C324264D1002C00D082E06346002B80
:1013100000D1ABE05346002B00D160E76346524654
:101320009B1A5A0100D4AAE0634652460D00D31A14
:1013300044E75246002A23D0012252429046C1443B
:101340004A46002A75D0FF2C00D05FE796E7FE26BC
:101350000134264253D1002872D16346002B00D1BC
:1013600093E05346002B00D139E7634400245A012F
:1013700002D54A4A013413405A0700D020E7DB085F
:10138000FF2C00D17AE75B025F0AE0B227E7FF207B
:10139000002724E7414B241A33400FE7FF2E00D1EA
:1013A0006AE780236246DB041A43944601231B2824
:1013B00009DC202463466246C340201A82401000A4
:1013C000441EA041034352460D003400D31ADCE60C
:1013D000634652469E1A730117D4002E00D0D9E6F8
:1013E000002500200027FAE66346002B44D001398F
:1013F00000294CD0FF2E00D071E743463EE7FF2C7A
:10140000C5D0524662445308B6E763460D00D61A6B
:10141000C0E66246002A16D15346002B00D02BE7C7
:1014200080270025FF20FF03D9E60D004346340046
:10143000A6E753466344F7E6634652469B1AA4E682
:101440006246002AD9D05246002A00D116E78022EF
:10145000D203134200D111E74046104200D00DE7FD
:101460000AE752460D003400D31A8EE65346002B8D
:1014700008D00D004746B2E64346340080E7002B13
:1014800000D079E700250027A9E64746A7E653469E
:1014900034006344C8E6C046FFFFFF7DFFFFFFFB4B
:1014A00041024200C30F490A0020120E7E2A03D9CE
:1014B0009D2A02D9094A98187047802000040143E8
:1014C000952A07DC9620821AD1404842002BF3D19E
:1014D0000800F1E7963A9140F7E7C046FFFFFF7F2B
:1014E00070B5002813D0C317C5185D40C40F28007D
:1014F00001F0BAFE9E2301001B1A962B0FDC082870
:1015000001DD08398D406D026D0AD8B202E0002479
:1015100000200025C0052843E407204370BD992B17
:101520000BDD05222E00121AD64002001B32954018
:101530002800451EA84135000543052901DD4A1F45
:1015400095402A00084E3240680709D00F202840F5
:10155000042805D00432500102D59F2332405B1A83
:101560009201550AD8B2D5E7FFFFFFFB70B5051E03
:101570000ED001F079FE9E2304001B1A962B0CDC82
:10158000082801DD083CA5406D026D0AD8B201E0D3
:1015900000200025C005284370BD992B09DD0200FD
:1015A00029001B3291404A1E91410522121AD54052
:1015B0000D43052C01DD621F95402900084E314086
:1015C0006A0709D00F202840042805D004314A01B9
:1015D00002D59F2331401B1B89014D0AD8B2D9E7A0
:1015E000FFFFFFFBF0B54F46D64646460D00010013
:1015F0001800C0B517002B035A0A4B0F1343CA003B
:10160000914602036E004100520AEC0F7D0F154314
:10161000760D490DC00F8246AC46FF00721A844217
:1016200000D198E0002A00DC81E0002900D1B6E07A
:10163000C9498E4200D172E1802128000904084383
:101640008446382A00DD5EE11F2A00DDEEE120201D
:1016500039006546801A8740D14085400D433900E6
:101660004F1EB9416746D7402943DB1B4A46551AEE
:10167000A945894149425B1A984643461B0200D45A
:10168000CCE043465B025B0A98464346002B00D100
:101690002CE1404601F0E8FD010008392022280035
:1016A0004346521A8B40D0408D4003438E4200DDAA
:1016B00017E18E1B721C1F2A00DDA7E120211800F4
:1016C0002E00891A8D408840D640D340691E8D4136
:1016D00030439846002605436B0709D00F232B4063
:1016E000042B05D02B1DAB42AD416D42A8441D001B
:1016F00043461B0200D494E0974B721C9A4200D1DF
:101700009DE04146954BED0819400B0052054907F5
:101710005B0229431B0B520D12051343E4072343BD
:1017200008001900E0BCBA46B146A846F0BD002A40
:1017300043D08A1B002E00D02AE14C461C4300D126
:10174000D1E1541E012A00D11FE2834DAA4200D1EB
:1017500072E2220023E1002A00DC98E0002942D056
:101760007D498E4200D1DAE0802128000904084337
:101770008446382A00DD29E11F2A00DC87E11100B8
:1017800065462039CD40202A04D040206146821A87
:1017900091400F4339004F1EB9410D431BE1290011
:1017A000394300D1B5E0511E012A00D1ABE16A48AE
:1017B000824200D1B2E10A0043E76949751C0D423B
:1017C00000D0CFE0002E00D093E14946194300D16C
:1017D000D1E16146394300D0E3E149465807C908E1
:1017E0000143DB0826E02900394300D191E0511E76
:1017F000012A05D05848824200D18FE10A00B8E79B
:101800003D004D444D4589416344984649428844D2
:10181000434602261B0200D5EBE0013E6B0700D0D9
:101820005CE74346E9085A0711433200DB084A489F
:10183000824221D01B0352051B0B520D6CE7002383
:10184000002169E72A003A4369D04A465807D1087F
:10185000DA0880231B0308431A4207D02900ED0849
:101860001D4203D12A00FF0848073843430FC10037
:101870005B07C908194313000A001A4300D113E299
:101880008022120313431B03334A1B0B44E7002A35
:101890004BD08A1B002E00D1E7E02F48814200D1B7
:1018A00095E1802000040343382A00DD43E11F2A2C
:1018B00000DDDBE120201D004E46801A8540D64029
:1018C00035434E4686403000D340461EB0419C44CE
:1018D0000543ED19BD429B415B42634498460E00AF
:1018E0007FE01E4A761A13409846F5E6280001F07C
:1018F000BBFC010018311F2900DCCFE62B000838A3
:1019000083400025D2E662463A4311004F1EB9419A
:10191000ACE649465807C9080143DB0887E7494652
:101920005A07C9081143DB08A6E70D49701C084295
:1019300000D0BBE0002E00D014E14946194300D18D
:1019400075E12900394300D07EE149465807C908AE
:101950000143DB086EE7C046FF070000FFFF7FFF83
:10196000FE0700004946CD1B6146581AA94589412A
:101970004942884601004046091A8846090200D5B6
:10198000A6E04146294300D07FE60023002451E72A
:10199000C74CA14200D1C7E0802424042343382A45
:1019A00054DC1F2A00DDCCE020244846A41A1D0088
:1019B0004E46A040D640A5400400D3406246354381
:1019C000661EB441D31A9C46254344E062463A431E
:1019D00015006F1EBD414D444D4589414942884621
:1019E000984443461B0200D418E7B14B01369E428F
:1019F00049D04246AF4B01211A4013006A080D40FE
:101A00001543D9075B0898460D4365E618001F3E4D
:101A1000F040202A03D040218A1A93401D43691EBA
:101A20008D410023002698460543F7E611006546E0
:101A30002039CD40202A04D040206146821A9140AE
:101A40000F4339004F1EB94129430FE64A4613435D
:101A50001D006B1E9D417D1BAF429B4162465B4258
:101A6000D31A984654460E0007E64846184300D15C
:101A7000B3E0501E012A00D10DE18D4DAA4200D1E4
:101A8000A5E0020010E732000023002144E62021F7
:101A90003800891A65468F408D40D040791E8F41AD
:101AA00005433D436746D740DB1994E7804A90429F
:101AB00000D1ECE039004944494592416344524227
:101AC0009B18DD0749085B08984606000D43A5E60C
:101AD0004A46BD1AAF42894162464942D31A5B1A4F
:101AE00098465446D1E56C07F9082143EB080400F9
:101AF0009DE64A461A4375D16146394314D1802385
:101B000000241B03BCE64A46D51BA9458941624611
:101B100049429B1A5B1A98460126AEE54A46D1080F
:101B20005A071143DB08A7E66346F9085A075446EB
:101B30001143DB08A0E64A4613431D006B1E9D417E
:101B4000C7E614001E00203CE640202A05D04024B1
:101B5000A21A93404A461A4391464D466B1E9D4138
:101B6000354378E74A461A4300D06BE66B07F9081D
:101B70001943EB0880E66146394354D06346F908BF
:101B80005C072143DB08040054E64A46BD1AAF4215
:101B9000894162464942D31A5B1A984604000126DD
:101BA0006BE54A46D51BA9458941624649429A1AC6
:101BB000521A9046120232D54A46BD1AAF428941A6
:101BC00062464942D31A5B1A9846040084E563468C
:101BD000F9085A071143DB084EE6F9086807014384
:101BE000EB0824E662463A4300D198E64A46D1081B
:101BF0005A071143DA0880231B031A4208D06046B3
:101C0000C5081D4204D154462A00F9084307194368
:101C10004B0FC9005B07C908194313002CE6414666
:101C2000294300D0FAE500230A00002402E66B07EE
:101C3000F9081943EB08FDE56346F9085B0719430A
:101C400063460400DB0817E63D004D4463444D4500
:101C5000894198464942884443461B0200D4DDE549
:101C60004246144B01261A409046D7E510001E004C
:101C70002038C640202A05D04020821A93404A4688
:101C80001A4391464D466B1E9D41354321E60200A5
:101C90000023002140E54A46D519BD4289416344ED
:101CA000984649428844B3E50021014A0B0033E5D8
:101CB000FF070000FFFF7FFFF0B557464E46454641
:101CC000DE46E0B5814605000C03480092461F0041
:101CD00085B0240B400DCE0F002859D0874B984279
:101CE00000D198E06B0FE4001C4380231B042343C6
:101CF0009846834BED009B4600239946834400930E
:101D00003C037B005046240B5B0DFF0F002B67D07C
:101D10007A4A934218D07A49420F8C46E4005946D9
:101D20001443802263441204CB1A14439B46C2001E
:101D3000002033007B409A464B460F2B00D9EFE042
:101D400070499B00CB589F466F4B52469C4622439E
:101D5000E344002A00D095E049460223194389460E
:101D600000240220E5E700230024002552461B053D
:101D70002343D20713432800190005B0F0BCBB462B
:101D8000B246A946A046F0BD002400255B4BEDE716
:101D90004B462343984600D189E0002C00D1E0E176
:101DA000200001F061FA010002000B391D235B1ACB
:101DB00049461000D940083884400B004D46234363
:101DC0009846854051483C03831A9B460023994618
:101DD00000937B005046240B5B0DFF0F002B97D127
:101DE0005246224355D0002C00D1CAE1200001F018
:101DF0003BFA02000B3A1D2301009B1A5246083998
:101E0000DA408C40144352468A40414B58449B462A
:101E1000834400208DE74B462343984640D1082356
:101E20009946063B00258346009369E7B246009B2E
:101E3000022BA9D0032B00D111E2012B93D0354AFC
:101E40005A44002A00DC3CE16B0700D0A7E1ED0812
:101E50004346DB0106D542462F4B1A40904680226E
:101E6000D2005A442D4B9A428EDC43465205580705
:101E70005C020543240B530D78E7BA46A0461500D3
:101E80000090D4E74A4603231A4391460320524662
:101E90004FE749460123194389460024012048E7BA
:101EA0000C239946093BA0468346009328E7042368
:101EB000994600239B4601330025009320E7002329
:101EC00080249A4600250D4B24034FE7802341468A
:101ED0001B03194208D01C4206D11C432403BA46F6
:101EE0001500064B240B41E78024434624031C4382
:101EF0002403B246014B240B38E7C046FF0700001D
:101F000001FCFFFF54A7020801F8FFFF0DFCFFFFD3
:101F1000F3030000FF030000FFFFFFFEFE070000C9
:101F2000444500D216E100D111E101235B429C46F9
:101F30002E0040460025E3442302140E1C431B0CD4
:101F4000994623041F0C1202494600920197FEF79E
:101F50006BF902007A430B04310C804619438A4224
:101F60000BD901235B429C460919E0448C4204D8FA
:101F70008A4202D9831E98460919881A4946FEF7F3
:101F800053F909048C4631046646019A090C424310
:101F9000030031438A4204D90919013B8C4200D81D
:101FA00011E1891A4246009E12041A43330C1F00A5
:101FB000100C9046029313043204160C32001B0CD2
:101FC0005A4303967B4346437843170CBC469B1900
:101FD00063449E4203D980267602B44660441E0CB8
:101FE000301816041B04360C9E19814200D29CE066
:101FF00000D197E0AE1B091AB54280414042081A51
:10200000844200D111E14946FEF70EF9019A0B0412
:102010004243310C050019438A4207D90919013D91
:102020008C4203D88A4201D9851E0919881A49466B
:10203000FEF7FAF809048C4631046646019A090C49
:102040004243030031438A4207D90919013B8C42BC
:1020500003D88A4201D9831E0919039E891A3200C6
:102060002D041D43029F2B041B0C5A437B439C46AB
:10207000280C4643130CB444634478439E4203D96E
:1020800080267602B44660441E0C12041B04120C17
:1020900030189B18814206D302D001231D43CEE69F
:1020A000002B00D1CBE661186E1EA14200D2A4E045
:1020B000814200D2C9E000D1D9E03500EDE7012529
:1020C0006D420121891A382900DD4CE61F2900DC08
:1020D0007FE01F235B429A1A4346D340202904D055
:1020E0004446654A5A44944025436A1E9541072256
:1020F0002B43150000241D401A4200D1A1E00F22FD
:1021000000241A40042A00D198E01A1D9A429B41EB
:102110005B42E4181300220200D48FE00123002464
:10212000002523E6B54200D364E743465A1E009BD0
:102130009C4665441F009D429B415B421B19C91888
:102140008C423AD2884263D860D0904652E7AA4285
:1021500000D9EAE64346DE0758086B081E43ED0740
:10216000EAE6484601F080F801000200153120320D
:102170001C2900DC1AE64B460838834000259846A7
:1021800020E601F071F803001A00153220301C2AF5
:1021900000DC30E65446083B00229C4035E60F2325
:1021A0002B40042B00D152E605235B42AB429B41FE
:1021B00004355B42ED0898444AE68C42C5D1AF42F3
:1021C000C0D9904616E78A4200D8EAE6831E09196C
:1021D000E7E62A4A28005A44434695409340C840BF
:1021E0006A1E9541444603432B43CC405A0792D084
:1021F0000F221A40042A88D18DE73500814200D091
:102200004BE7009A934200D047E718E6AE429CD9CC
:1022100002235B429C46009BE0449C4665449D42F1
:102220009B415B421B19C918E4E6154A5A44002A2F
:1022300000DC44E701230025984409E665076402B1
:10224000240BDB081D43002390E5009E023D720035
:10225000B242BF417F423C1909190092CEE7802467
:10226000434624031C432403064B240B7EE5009ABB
:102270009A42EAD33500C4E73E0400001E04000081
:10228000FF030000FF070000F0B54F464646D64664
:10229000944691461A03120B184DC0B54C000F031B
:1022A00092465A00060080463F0B0120640DC90F7C
:1022B000520DDB0FAC420AD0AA4203D0944201D1A6
:1022C00057450DD0E0BCBA46B146A846F0BD3D002A
:1022D0003543F7D1A242F5D1524665462A43F1D1A2
:1022E0000120C845EED1994206D0002CEAD13E43E8
:1022F0003000461EB041E5E70020E3E7FF0700009D
:10230000F0B54E4645465746DE4604001800E0B597
:1023100016001B031B0B324D0F034A009946430066
:10232000A446B0463F0B520DC90F5B0DC00FAA4229
:1023300029D0AB4218D0002A2AD13C43A34665429B
:102340006541002B02D14C46264327D0002D15D1E4
:10235000814228D00220013908400138F0BCBB4638
:10236000B246A946A046F0BD4D462E432FD1002AC5
:10237000EED13C4365426541002DE9D00028EDD106
:1023800001204042EAE73D00254320D19342EBD0B3
:10239000002BDDD14C462643DAD1DBE75B4600203B
:1023A000002BDBD0D6E79A420ADCE7DB4F45D1D8D9
:1023B00010D000204F45D1D20029E1D00800CDE750
:1023C000434258410223404218400138C6E70220E8
:1023D0004042C3E7C445BDD80020C445BED2EBE7A8
:1023E000FF070000F0B54E4645465746DE4604005E
:1023F0001800E0B516001B031B0B314D0F034A00FC
:1024000099464300A446B0463F0B520DC90F5B0DE1
:10241000C00FAA4211D0AB4214D0002A2FD13C43A6
:10242000A34665426541002B14D14C46264311D189
:102430005B460020002B17D010E03D00254312D151
:1024400093421CD14D462E430DD1002A04D13C436A
:1024500065426541002D0DD1814216D0022001391F
:102460000840013800E00220F0BCBB46B246A94655
:10247000A046F0BD0028F7D101204042F4E7002B30
:10248000EAD14C462643E7D1E8E79A4206DD4342CB
:1024900058410223404218400138E5E79A42E9DBFF
:1024A0004F45DBD806D000204F45DDD20029E3D0D0
:1024B0000800D9E7C445D1D80020C445D4D2F5E7F7
:1024C000FF070000F0B557464E464546DE46E0B5EC
:1024D00098460C034B000600924687B0240B5B0D18
:1024E000CF0F002B6CD0DD4A934200D186E0420F23
:1024F000E4001443802212041443D94AC5009446D0
:1025000063440093002399469B46434642461E037C
:10251000D20F5B0050469046360B5B0D00D178E041
:10252000CE4A93421DD0CE49420F8C460099634457
:10253000F6008C46164380229C44120463461643E0
:10254000C200002000930099434601318C46494661
:102550007B4001930F2900D97EE0C24B8900595876
:102560008F465246009B324300D056E1BB490026BD
:102570008C4663444946009302231943894602204E
:10258000E1E7434601933400150083465B46022B86
:102590005ED0032B00D1F3E1012B00D018E1002223
:1025A00000240025019B12052243DB071A43280063
:1025B000110007B0F0BCBB46B246A946A046F0BD2C
:1025C0002500054300D141E1002C00D1ADE1200000
:1025D00000F04AFE010002000B391D2310005B1AB7
:1025E0003100350008388440D94085400C439E486E
:1025F000831A0093002399469B4686E705002543EE
:1026000000D01CE1082200930223002491469B463F
:102610007BE75246324300D10AE1002E00D176E139
:10262000300000F021FE02000B3A1D2301009B1A2E
:1026300052460839DA408E40164352468A40009B83
:102640008949181A03008C466344002000937AE7F6
:1026500000240025814AA5E72F0C2D042D0C2B000A
:10266000110C1204120C53439846130028007B43AC
:10267000994648434844834640460B00000C824636
:1026800058467B4350440293814506D99A4680239D
:102690005B029946CA4453460293030C9B46434649
:1026A0001B0400041B0C9846030043440493330CA2
:1026B00099462B003604360C7343984633007B430F
:1026C0009A464B465D435F4343465544180C4019B8
:1026D000824503D980235B029A465744050CEB19C7
:1026E000059343461D042D0C00044019250C2404B9
:1026F000240C270057436A4390462A003B0C9A4615
:102700004A436143414451448344884503D980236B
:102710005B02984642443F040B0C3F0C0904C91964
:10272000270098464B4677435C436E435D433B0C22
:102730009946A4194C4442440395A64204D98023E7
:102740005B02984645440395029B3F045B441E0090
:102750008342804123049846059B3F0C474498469A
:1027600076188E428941474440423D18A846934618
:1027700049428A46C3449F42BF4180458041039BF2
:10278000DA449846534640427F420743240C93451F
:1027900092418A4589413F19DC0D049B75021D4316
:1027A000681E85415346524249420A43BF18474476
:1027B000F60D7F0235435A023C431543FB0100D41A
:1027C000C1E001216A080D401543E2071543640882
:1027D00026496144002956DD6B0709D00F222A40A3
:1027E000042A05D02A1DAA42AD416D426419150084
:1027F000E30104D580211E4AC900144061441D4AEA
:10280000914200DD24E76207ED08640249051543A3
:10281000240B4A0DC6E60197B8E6104A03209446F9
:1028200063444A46009303231A43914652468AE67C
:1028300049460123194389460026012083E60C22DC
:1028400000930323050091469B465EE604239946C8
:1028500000230093013300249B4656E6FF07000047
:1028600001FCFFFF94A702080DFCFFFFFF0300001F
:10287000FFFFFFFEFE070000002380240025444ADE
:10288000019324038EE60120401A382800DD86E6F5
:102890001F285BDD1F2223005242511ACB40190032
:1028A000202803D03B4A6244944025436A1E954148
:1028B0002A000A4307210D000024154011425BD075
:1028C0000F2100241140042953D0111D914292413F
:1028D0005242A4180A0023024BD5012200240025ED
:1028E00060E680231B031C4209D01E4207D13343FC
:1028F0001C0343461500240B254A019352E680220F
:10290000120314432403224A240B01974AE600F0E1
:10291000ABFC03001A00153220301C2A00DC84E6D0
:102920005646083B00229E4089E600F09DFC0100CF
:102930000200153120321C2900DC4EE63400083834
:102940000025844053E6009B9C4641E71249220043
:1029500061442E008D408A40C640691E8D4132433D
:102960002A43C4405307B6D00F2111400429ACD1EB
:10297000B1E765076402240BD2081543002211E673
:102980008022120314432403014A240B0AE6C046A2
:10299000FF0700003E0400001E040000F8B5574683
:1029A0004E464546DE460400E0B51F0010000B030E
:1029B000620F4E00CD0F5B0A39031343490AE20050
:1029C000440F2143C24C91469246C0007A00804693
:1029D000760D520DFF0FA24200D1B4E001246740F2
:1029E000BB46BD4200D188E0B41AA446002C00DCEE
:1029F000B2E0002A00D1C5E0B54A964200D18BE290
:102A00008022120411436246382A00DDA1E11F2A08
:102A100000DD16E220270C00BF1ABC400200A046D1
:102A20006446B840E240444614430200501E8241CE
:102A30006046C14022435B1A49468C1AA145924127
:102A400052429B1A984643461B0200D417E1434664
:102A50005B025B0A98464346002B00D16CE140467E
:102A600000F002FC0200083A202120004346891AA7
:102A70009340C84094400343964200DD57E1961BC3
:102A8000711C1F2900DDCBE1202218002600521AFC
:102A900094409040CE40CB40621E944130439846D3
:102AA00000260443630709D00F232340042B05D0DD
:102AB000231DA342A4416442A0441C0043461B02C0
:102AC00000D4DFE0824B01369E4200D1FBE042465B
:102AD000804BE4081A401300710552075B02224341
:102AE0001B0B490D0905ED07194329431000F0BCE4
:102AF000BB46B246A946A046F8BDB41AA446002C6F
:102B000058DD002A00D19EE0714A964200D13BE197
:102B10008022120411436246382A00DDC1E01F2AD8
:102B200000DCBBE10C00203AD44022006446202C9B
:102B300004D040273F1BB940084380464446611EED
:102B40008C411443B1E00C0004432AD0BB46BD4283
:102B50002DD0614CA446B4446446002C5CD0941B38
:102B6000A446002E00D015E14D461D4300D1C3E11F
:102B7000651E012C00D10CE2554EB44200D1F8E1A3
:102B8000AC460EE10A00024300D136E12200013AD0
:102B9000012C00D1C6E14E4CA44500D1F4E094468E
:102BA00031E701246740BB46BD4200D01CE74A4CD8
:102BB000A446B4446446002C00D1CFE0941BA44644
:102BC000002E00D15CE1424EB24200D1ECE1802601
:102BD000360433436446382C00DDB3E11F2C00DD9E
:102BE00038E22026361B1C00B4404F46A0466446FF
:102BF000E74044463C434F46B7403E00771EBE4147
:102C000034436646F340C918241884429B415B4212
:102C10009846160088444EE0304A741C144200D096
:102C2000D6E04A461A43002E00D05BE1002A00D1CC
:102C3000A5E10A00024300D0BBE14A465907D20889
:102C40000A43DB0827E00A00024300D174E12200B6
:102C5000013A012C05D01E4CA44500D194E09446C5
:102C600059E74844484592415B189846040052424F
:102C70009044434602261B0200D5C4E0013E630790
:102C800000D011E74346B4465907E2080A43DB087F
:102C90000F498C4540D061461B0349051B0B490D6C
:102CA00020E701430C00611E8C414C444C4592418D
:102CB00052429046984443461B02E0D5044B0136ED
:102CC0009E4200D09FE03100002300220AE7C04668
:102CD000FF070000FFFF7FFF01F8FFFFFE07000076
:102CE000002A00D160E10A0002434DD04A465C0749
:102CF000D20822438024DB082403234207D0CE08D5
:102D0000264204D15D463300C20849070A43510FE9
:102D1000D200D20849070A431100194300D1C8E183
:102D2000802109030B431B03D5491B0BDAE6D54968
:102D3000B61A0B409846B5E6200000F095FA02005E
:102D400018321F2A00DC8FE6230008388340002455
:102D500092E608430200501E82416DE6CA4C721C86
:102D6000224200D0ADE04A461A43002EB8D1002AD4
:102D700000D158E10A00024300D059E14A46590700
:102D8000D2080A43DB0886E74A465907D2080A43B5
:102D9000DB08C1E7BA4DAA4200D11EE180252D040F
:102DA0002B436446382C5DDC1F2C00DDD0E0202551
:102DB00067462D1B4E461C00FE40AC4034434E4639
:102DC000AE403500FB406E1EB541C91A2C434EE0A3
:102DD0004A46141AA1459241524290465F1A3A005F
:102DE0004746D21B9046120200D58BE04246224352
:102DF00000D030E6002300254DE74A465907D208A7
:102E00000A43DB0844E742469E4B61081A40130020
:102E1000012214400C43DA075B089846144341E64C
:102E20001A001F3EF2401600202903D04022511AFA
:102E30008B401C43621E9441002334439846002675
:102E40001DE70C00203AD44022006446202C04D018
:102E500040273F1BB940084380464446611E8C41D1
:102E60002243E9E54C4623431C00631E9C41041B9E
:102E7000A0429B415B42CB1A98465D461600E2E5B4
:102E80004E461E4300D1AEE0661E012C00D1FDE08F
:102E90007B4FBC4200D107E1B4469BE6644620224A
:102EA000121B0C00944007009040A0466446421E4E
:102EB00090416246E7404446D1403C4304435B189E
:102EC000F3E66F4CA24200D1D5E048445B18484578
:102ED000894149425B18DC0740085B0898461600A8
:102EE0000443CCE6002A00D082E00A00024340D12D
:102EF000802300251B0313E74B07C2081A435D46D6
:102F0000CB08C5E64A46841AA0429241CB1A5242E7
:102F10009B1A98465D469EE54A465907D2080A43E1
:102F2000DB08F9E64A46141AA14592415B1A52425F
:102F30009B1A9846012686E54A465907D2080A4355
:102F4000DB08A5E64C4623431C00631E9C415BE660
:102F500065461E00203DEE40202C05D040252D1B4F
:102F6000AB404C461C43A2465446631E9C4134432E
:102F70007DE74B07C2081A435D46CB08CCE60A0042
:102F8000024300D136E74B07C2081A435D46CB081F
:102F900081E64A46841AA0429241CB1A52429B1AB9
:102FA00098465D4601264EE54B07C2081A43CB08FA
:102FB000B2E64A46141AA14592415F1A5242BA1A21
:102FC000904612026BD54A46841AA0429241CB1A0F
:102FD00052429B1A98465D4664E54B07C2081A4365
:102FE0005D46CB0898E64B07C2081A43CB084FE66C
:102FF0000A00024390D04A465C07D208144380225C
:10300000DB081203134208D0CE08164205D1C008CF
:103010004907084304005D463300610FE200490799
:10302000D2080A4378E64B07C2081A43CB0832E6B7
:1030300048445B1848459241984652429044434662
:1030400004001B0200D41AE642460E4B01261A4029
:10305000904614E666461F00203EF740202C05D01F
:103060004026361BB3404C461C43A2465446631EC2
:103070009C413C43C8E511000023002232E5C046D4
:10308000FF070000FFFF7FFFFE0700004A461418FD
:10309000844292415B18984652429044E9E5424688
:1030A000224300D1A6E6EAE54B07C2081A43CB0843
:1030B00032E600220149130014E5C046FF07000074
:1030C0000A0030B5134C530009030500090B00201A
:1030D0005B0DD20FA34204DD0F48834202DD0F4B8C
:1030E000D01830BD8020400301430D48C01A1F286E
:1030F00008DD0C48C31AD9400B005842002AF0D111
:103100001800EEE7084CC540A446634499400B0004
:103110002B43F2E7FE0300001D040000FFFFFF7FCA
:103120003304000013040000EDFBFFFF70B500281E
:1031300016D0C317C5185D40C40F280000F094F8DE
:10314000114A121A0A2816DC03002E0015339E407D
:103150000B23181AC54053052D032D0B5B0D03E0FF
:1031600000240023002500261B052B43E4072343EE
:103170003000190070BD0B38854053052D03002623
:103180002D0B5B0DF0E7C0461E04000010B5041EB9
:1031900010D000F069F80F4B1B1A0A2811DC0B2223
:1031A0002100121AD14015300A035B058440120B2E
:1031B0005B0D01E0002300221B05134320001900D2
:1031C00010BD22000B3882405B0512030024120B55
:1031D0005B0DF1E71E04000070B543004602C40F0A
:1031E000FE201B0E591C750A08420CD0E0229200EA
:1031F00094466D07360B63441B053343E4072343B2
:103200002800190070BD002B14D1002D1BD0280000
:1032100000F02AF80A281CDC0B232A001B1ADA40CB
:10322000030015339D400E4B12031B1A5B05160B52
:103230005B0DE1E7002D09D0320B80263603094BE8
:103240006D071643D8E700230026D5E70026054B77
:10325000D2E703002A000B3B9A400025E3E7C04673
:1032600089030000FF0700001C2101231B04984272
:1032700001D3000C10391B0A984201D3000A083907
:103280001B09984201D30009043902A2105C4018BE
:103290007047C04604030202010101010000000062
:1032A0000000000010B5002903D1FFF7DDFF20303A
:1032B00002E0081CFFF7D8FF10BDC046F0B5574626
:1032C0004E464546DE46E0B50F00190000230600D5
:1032D0009846100083B0002F07DA33003C00002727
:1032E0005E42A74101235B429846002907DA434624
:1032F000DB430C009846030000215842A1413400F2
:103300003D0082468946B9426AD867D04946504650
:10331000FFF7C8FF834639003000FFF7C3FF5B4665
:103320001B1A9C46203B9B466BD458465146814015
:1033300060460B00514681400A00BB4200D972E052
:10334000BB4200D179E034003D005946A41A9D41AA
:10335000002900DA74E0002100200126009001918C
:1033600059468E400196614601268E406146009680
:1033700000295FD0D90756080E435F086146012235
:1033800000230CE0AF4201D1A6420AD8A41BBD41E4
:1033900024196D410139A4185D41002906D0AF42BE
:1033A000F0D9013924196D410029F8D1009801990B
:1033B0005B4600196941002B4DDB2E002C00DE40DE
:1033C0006346DC405B46002B55DB34009C40230009
:1033D0006446A6403200801A994103E0B04295D974
:1033E000002000214346002B04D003000C000021E4
:1033F0005842A14103B0F0BCBB46B246A946A04624
:10340000F0BD624648462023514690409B1AD94061
:1034100003000091009960460B43514681400A0029
:10342000BB4200D88CE7002100200090019161464A
:1034300000299FD100980199D4E7B142F3D882E7DF
:10344000614620260127761A00200021F7400090CF
:103450000191019787E7624620239B1A2A009A4030
:10346000260013006246D6402C001E436346DC4013
:103470005B46002BA9DA62462023350094409B1A54
:10348000DD4023002B43A3E70D488546002103E0E0
:103490000C4B5B58435004310B480C4B42189A427A
:1034A000F6D30B4A02E0002313600432094B9A4220
:1034B000F9D30DF09DF924F02BFC22F0AFFFFEE7CD
:1034C000005000207CA80208000000200007002017
:1034D0000007002024350020FEE7000080B58CB0F6
:1034E00000AF0200FB1D1A70FB1D1B78032B2FD0B1
:1034F0003ADC022B1FD037DC002B02D0012B0DD081
:1035000032E02A4BDA6A294B02210A43DA62274B5E
:10351000DB6A02221340BB61BB6925E0234BDA6AF8
:10352000224B01210A43DA62204BDB6A012213405D
:103530007B617B6918E01D4BDA6A1C4B02210A4350
:10354000DA621A4BDB6A022213403B613B690BE0F3
:10355000164BDA6A154B02210A43DA62134BDB6A17
:1035600002221340FB60FB68C046FB1D1A78104B1B
:103570005200D35A1A001C217B181A607B180122B2
:103580005A607B1800229A607B180322DA60FB1DC8
:103590001A78084B9200D3587A18110018000DF0D1
:1035A00081FEC046BD460CB080BDC0460010024042
:1035B000C89302080000002080B582B000AF02006E
:1035C000FB1D1A70FB1D1A78074B9200D058FB1D8B
:1035D0001A78064B5200D35A012219000DF0E0FF71
:1035E000C046BD4602B080BD00000020C89302085E
:1035F00080B582B000AF0200FB1D1A70FB1D1A7867
:10360000074B9200D058FB1D1A78064B5200D35A34
:10361000002219000DF0C4FFC046BD4602B080BDB7
:1036200000000020C893020880B500AF05231800F1
:10363000BD4680BD80B582B000AF0200FB1D1A7090
:10364000FB1D1B78012B0BD18023D900A023DB05A8
:103650000122180022F07AF9052023F011FB07E07F
:103660008023D900A023DB050022180022F06EF988
:10367000C046BD4602B080BD80B586B000AF3B1DE0
:10368000180014231A00002124F066FB1B4B1800BD
:1036900009F062FC3B1D1A4A5A603B1D02229A60E7
:1036A0003B1D0322DA603B1D16481A00102122F050
:1036B0007BF83B1D13481A00022122F075F83B1DD0
:1036C00010481A00012122F06FF83A1D80239B0157
:1036D0000D48190022F068F83B1D01225A603B1D7D
:1036E00000229A603A1D8023D900A023DB05180030
:1036F00022F05AF8C046BD4606B080BD0C0000203E
:1037000000001110000400500008005080B582B085
:1037100000AF78607B681B6810480022102122F0FF
:10372000B9F87B6804331B680C480022022122F0A0
:10373000B1F87B6808331B6808480022012122F099
:10374000A9F87B680C331B68802291010448002291
:1037500022F0A0F8C046BD4602B080BD0004005073
:103760000008005080B586B000AF3B1D1800142340
:103770001A00002124F0F0FA3B1D114A5A603B1D4B
:1037800002229A603B1D0F481A00102122F00CF80B
:103790003B1D0C481A00022122F006F83B1D094887
:1037A0001A00012122F000F83A1D80239B010648EF
:1037B000190021F0F9FFC046BD4606B080BDC046E5
:1037C000000011100004005000080050F0B585B052
:1037D00000AF0200FB1D1A700F257B1900221A7022
:1037E0000E26BB1900221A707C1909200BF004F96F
:1037F00003002370BC194D200BF0FEF8030023706A
:103800007B191B785BB27F2213405CB2FB1D1B78D7
:103810005BB2180000F0BAF803005BB223435AB25F
:103820007B191A707B191B785BB2002B66DAFB1DC3
:103830001B785BB2112B06DDBB19BA191278072170
:103840000A431A700BE00E217B181B785BB207222B
:1038500093435BB2042213435AB27B181A700E23AF
:10386000FB181B7807221340072B23D1FB1D1B7865
:103870005BB2042B02DCFB1D05221A70FB1D1B78BA
:103880005BB2142B02DDFB1D14221A700F203B18B3
:103890001B785BB20F2293435AB2FB1D1B78053B8A
:1038A000DBB25BB20F210B405BB213435AB23B1841
:1038B0001A7059E0FB1D1B785BB2012B02DCFB1D6B
:1038C00002221A70FB1D1B785BB2112B02DDFB1D5F
:1038D00011221A700F203B181B785BB20F22934302
:1038E0005AB2FB1D1B78023BDBB25BB20F210B40CF
:1038F0005BB213435AB23B181A7035E0FB1D1B78BC
:103900005BB2002B18DDFB1D1B785BB20F2B02DDB9
:10391000FB1D0F221A700F217B181B785BB27F22D0
:1039200093435BB2702213435AB2FB1D1B781343BF
:103930005AB27B181A7017E0FB1D1B785BB2043378
:1039400002DAFB1DFC221A700F217B181B785BB278
:103950007F2293435AB2FB1D1B780433DBB25BB268
:1039600013435AB27B181A700F23FB181B781900E7
:1039700009200BF02DF80E23FB181B7819004D20A1
:103980000BF026F8C046BD4605B0F0BD80B582B04C
:1039900000AF0200FB1D1A70FB1D1B785BB20E2BE3
:1039A00001DD802300E000231800BD4602B080BD89
:1039B00080B582B000AF0200FB1D1A70FB1D1B78A2
:1039C00001225340DBB2002B02D000F007F801E0E7
:1039D00000F044F8C046BD4602B080BD80B586B058
:1039E00000AF3B1D180014231A00002124F0B4F985
:1039F0003B1D01225A603B1D00229A603B1D0322A1
:103A0000DA603A1DA023DB050221180021F0CCFE6C
:103A1000A023DB0500220221180021F097FF3B1DA7
:103A20000D481A00022121F0BFFE0B4B002202219B
:103A3000180021F08BFF3B1D07481A00042121F0DC
:103A4000B3FE054B00220421180021F07FFFC04681
:103A5000BD4606B080BDC0460008005080B586B0A7
:103A600000AF3B1D180014231A00002124F074F944
:103A70003B1D03225A603B1D00229A603B1D03221E
:103A8000DA603A1DA023DB050221180021F08CFE2C
:103A9000A023DB0500220221180021F057FF3B1D67
:103AA0000D481A00022121F07FFE0B4B002202215B
:103AB000180021F04BFF3B1D07481A00042121F09C
:103AC00073FE054B00220421180021F03FFFC04681
:103AD000BD4606B080BDC04600080050B0B584B0F9
:103AE00000AF0200FB1D1A700F257C1909200AF097
:103AF00083FF03002370FB1D1B78032B15D17B195B
:103B00001B785BB2002B06DA0F4B01220221180052
:103B100021F01CFF05E00C4B01220421180021F0CC
:103B200015FF0A4B01221A700AE0084B00221A7096
:103B3000A023DB0501220221180021F007FFC04667
:103B4000C046BD4604B0B0BD000800504C1D00206A
:103B500080B582B000AF786001231800BD4602B086
:103B600080BDB0B584B000AFF860080011007B6084
:103B70000B257B19021C1A7008203B180A1C1A809E
:103B80003B181C887A687B191978F86823000BF0B9
:103B900097FD031E01D0002300E001231800BD465D
:103BA00004B0B0BDB0B584B000AFF860080011003B
:103BB0007B600B257B19021C1A7008203B180A1C1D
:103BC0001A803B181C887A687B191978F8682300DA
:103BD0000BF052FD031E01D0002300E0012318006A
:103BE000BD4604B0B0BD80B582B000AF786039602A
:103BF0003B68786801220621FFF7B3FF031E01D15D
:103C0000002300E001231800BD4602B080BD90B53E
:103C100085B000AF78600A00FB1C1A700C23FB18FB
:103C2000786801220021FFF79CFF031E01D10023C9
:103C30001BE0FB1C1B7801221340DAB20C243B1959
:103C400001210A4090181A7802218A43111C021C93
:103C50000A431A703B19786801220021FFF7A2FF7E
:103C6000031E01D1002300E001231800BD4605B06A
:103C700090BD90B585B000AF78600A00FB1C1A704B
:103C80000C23FB18786801220421FFF76AFF031E4A
:103C900001D100231BE0FB1C1B7807221340DAB282
:103CA0000C243B1907210A4010011A7870218A431D
:103CB000111C021C0A431A703B1978680122042166
:103CC000FFF770FF031E01D1002300E0012318005D
:103CD000BD4605B090BD90B585B000AF78600A00D4
:103CE000FB1C1A700C23FB18786801220421FFF7D3
:103CF00038FF031E01D100231BE0FB1C1B780722A9
:103D00001340DAB20C243B1907210A4010001A783C
:103D100007218A43111C021C0A431A703B19786858
:103D200001220421FFF73EFF031E01D1002300E022
:103D300001231800BD4605B090BD80B584B000AF2A
:103D4000786039600C23FB18786803220A21FFF79A
:103D500008FF031E01D100230EE00C217B181B7805
:103D60001A007B185B781B021A437B189B781B0494
:103D70001A433B681A6001231800BD4604B080BD99
:103D800080B588B000AF786039600823FB18786888
:103D900006220A21FFF7E5FE031E01D100232EE0D3
:103DA00008217B181B781A007B185B781B021A43CA
:103DB0007B189B781B041343FB617B18DB781A008C
:103DC0007B181B791B021A437B185B791B04134376
:103DD000BB61FA69BB699A4201D9232300E02E2313
:103DE0007B61BB697A695343962251001800FCF746
:103DF00095F903003B613B683A691A60012318009A
:103E0000BD4608B080BD80B582B000AF78607B68E9
:103E1000180000F099F80300012B01D101231EE0E6
:103E20007B6801211800FFF7F2FE031E01D1012378
:103E300015E07B6800211800FFF71BFF031E01D16E
:103E400001230CE07B6802211800FFF744FF031EEA
:103E500001D1012303E07B680122DA7000231800FE
:103E6000BD4602B080BD80B582B000AF78607B688F
:103E7000180000F069F80300012B01D1012315E0BF
:103E80007B68180000F031F80300012B01D10123F9
:103E90000CE07B6800211800FFF7B9FE031E01D17A
:103EA000012303E07B680022DA7000231800BD467E
:103EB00002B080BD80B582B000AF78607B681B79AE
:103EC000012B01D100230CE07B6801211800FFF7D2
:103ED0009EFE031E01D1012303E07B6801221A71BB
:103EE00000231800BD4602B080BD80B582B000AF8F
:103EF00078607B681B79002B01D100230CE07B6884
:103F000000211800FFF783FE031E01D1012303E007
:103F10007B6800221A7100231800BD4602B080BDE4
:103F200080B582B000AF786039603A687B68110074
:103F30001800FFF758FE031E01D1012300E0002303
:103F40001800BD4602B080BD80B584B000AF786077
:103F50000F217B1800221A707A187B681100180054
:103F6000FFF7DEFF0300012B01D1012309E07B688D
:103F70001A780F23FB181B789A4201D0012300E026
:103F800000231800BD4604B080BD80B584B000AFEA
:103F9000F860B9607A603B60BA68FB68110018008D
:103FA000FFF7EEFE031E01D101230AE07A68FB68E9
:103FB00011001800FFF7C1FE031E01D1012300E02C
:103FC00000231800BD4604B080BD80B584B000AFAA
:103FD000F8607A600B203B180A1C1A707A683B184C
:103FE0001978F86813000122FFF7BBFD031E01D109
:103FF000012300E000231800BD4604B080BD80B559
:1040000082B000AF786008001100FB1C021C1A701F
:10401000BB1C0A1C1A70BA1CFB1C197878681300A8
:104020000122FFF7BFFD031E01D1012300E00023A1
:104030001800BD4602B080BD80B582B000AF786088
:10404000396000231800BD4602B080BD90B585B030
:1040500000AFF860080011007B600B243B19021CC4
:104060001A7008203B180A1C1A803B181B88012B69
:1040700006D93B193A191278802149420A431A702D
:104080000823FB181C887A680B23FB181978F8683A
:1040900023000BF015FB031E01D0012300E00023D9
:1040A0001800BD4605B090BD90B585B000AFF86072
:1040B000080011007B600B243B19021C1A700820B9
:1040C0003B180A1C1A803B181B88012B06D93B1988
:1040D0003A191278802149420A431A700823FB18C2
:1040E0001C887A680B23FB181978F86823000BF0FA
:1040F000C3FA031E01D0012300E000231800BD46CF
:1041000005B090BD80B582B000AF786039603B6883
:10411000786801220F21FFF799FF031E01D00123C8
:1041200000E000231800BD4602B080BDF0B589B0A4
:1041300000AF786039600C23FB18786802223021C8
:10414000FFF784FF031E01D00123ADE00C217B1893
:104150001B785B08DAB21E23FB181A807B185B7889
:104160005B08DAB21C23FB181A807B1878680222DD
:104170003621FFF76BFF031E01D0012394E00C20D2
:104180003B185B781B0219B23B181B781AB21A2332
:10419000FB180A431A803B18786802223A21FFF77D
:1041A00055FF031E01D001237EE00C203B185B78F5
:1041B0001B0219B23B181B781AB21823FB180A43CA
:1041C0001A803B18786802222821FFF73FFF031E60
:1041D00001D0012368E00C22BB185B781B0219B2E6
:1041E000BB181B781AB216203B180A431A803B18DA
:1041F00000229A5E1A257B1900215B5ED31A1800F3
:10420000FDF76EF9041C1C23FB1800229A5E1E2683
:10421000BB1900215B5ED31A1800FDF761F9031C7E
:10422000191C201CFCF75AFE031C1C1C1823FB182D
:1042300000229A5E7B1900215B5ED31A1800FDF7FD
:104240004FF9031C191C201CFCF77EFC031C1C1CD2
:10425000BB1900229B5E1800FDF742F9031C191CD4
:10426000201CFCF7D5FA031C3B6111493869FCF7A7
:1042700035FE031C3B610F493869FCF729F9031E21
:1042800002D0FA239B000CE000213869FCF70CF9FE
:10429000031E01D0002304E03869FCF799F90300FC
:1042A0009BB23A68138000231800BD4609B0F0BDE8
:1042B0000000204100007A44F0B58BB000AF786078
:1042C00039601023FB18786802223221FFF7BEFE06
:1042D000031E01D00123BBE00F23FB1878680122E5
:1042E0003521FFF7B3FE031E01D00123B0E00F24F8
:1042F0003B191B781B021AB2C0239B00134019B252
:1043000010203B181B781AB226257B190A431A8005
:104310003B191B789B011AB2C0239B00134019B2B2
:104320003B185B781AB224243B190A431A802223D3
:10433000FB187A190021525ED2101A802023FB1834
:104340003A190021525ED2101A803B187868042274
:104350003C21FFF77BFE031E01D0012378E01020F3
:104360003B185B781B0219B23B181B781AB21E234C
:10437000FB180A431A803B18DB781B0219B23B1862
:104380009B781AB21C23FB180A431A803B187868E2
:1043900002222A21FFF75AFE031E01D0012357E013
:1043A0001022BB185B781B0219B2BB181B781AB21B
:1043B0001A203B180A431A803B1800229A5E1E25D9
:1043C0007B1900215B5ED31A1800FDF789F8041CE5
:1043D0002023FB1800229A5E2226BB1900215B5E77
:1043E000D31A1800FDF77CF8031C191C201CFCF7DD
:1043F00075FD031C1C1C1C23FB1800229A5E7B19F4
:1044000000215B5ED31A1800FDF76AF8031C191C23
:10441000201CFCF799FB031C1C1CBB1900229B5E93
:104420001800FDF75DF8031C191C201CFCF7F0F9BF
:10443000031C7B6108497869FCF750FD031C7B6114
:104440007869FDF72DF803001AB23B681A80002343
:104450001800BD460BB0F0BD0000204180B586B00D
:1044600000AFF860B9607A601723FB18F868012282
:104470002721FFF7EBFD031E01D0012310E01721D8
:104480007B181B785B1001221340DAB2BB681A70EC
:104490007B181B7801221340DAB27B681A70002364
:1044A0001800BD4606B080BD80B584B000AF78600E
:1044B0000F23FB18786801222021FFF7C7FD031E98
:1044C00001D0012313E00F217B181B788022524278
:1044D0001343DAB27B181A707B1878680122202106
:1044E000FFF7E2FD031E01D0012300E000231800C6
:1044F000BD4604B080BD80B584B000AF78600F23A6
:10450000FB18786801222021FFF7A0FD031E01D0CF
:10451000012312E00F217B181B787F221340DAB2AF
:104520007B181A707B18786801222021FFF7BCFDE8
:10453000031E01D0012300E000231800BD4604B093
:1045400080BD000080B584B000AF78600A00FB1C1D
:104550001A70FB1C1B78012B09D0FB1C1B78002B4D
:1045600005D01A4A1A4B1100180000F0A1F80F23C9
:10457000FB18786801222021FFF768FD031E01D097
:1045800001231EE00F217B181B7804229343DAB22B
:104590007B181A70FB1C1B789B005AB27B181B7887
:1045A0005BB213435BB2DAB27B181A707B1878687F
:1045B00001222021FFF778FD031E01D0012300E036
:1045C00000231800BD4604B080BDC0466302000051
:1045D0004894020880B584B000AF78600A00FB1CE4
:1045E0001A70FB1C1B78002B11D0FB1C1B78012BB5
:1045F0000DD0FB1C1B78022B09D0FB1C1B78032B56
:1046000005D0184A184B1100180000F051F80F237C
:10461000FB18786801222021FFF718FD031E01D046
:1046200001231AE00F217B181B7803229343DAB28F
:104630007B181A707B181A78FB1C1B781343DAB2AC
:104640007B181A707B18786801222021FFF72CFD57
:10465000031E01D0012300E000231800BD4604B072
:1046600080BDC046BA0200004894020880B584B0FC
:1046700000AF786039600F23FB1878680122202191
:10468000FFF7E4FC031E01D001230CE00F217B188F
:104690001B7803221340DAB27B181A707B181A7841
:1046A0003B681A7000231800BD4604B080BD0000AE
:1046B00080B582B000AF786039603A687968024BA3
:1046C000180023F051FBFEE79894020880B582B0F1
:1046D00000AF78607B689B681B681B685B78002B69
:1046E00008D17B68180000F099FA0300012B01D172
:1046F000012309E07B689B681B681B6801221A7014
:104700007B680122DA7000231800BD4602B080BD2C
:1047100080B582B000AF78607B689B681B681B68BF
:104720005B78002B08D17B68180000F03BF8030091
:10473000012B01D1012309E07B689B681B681B6882
:1047400000221A707B680022DA7000231800BD4630
:1047500002B080BD80B582B000AF78607B681B7905
:10476000012B01D1002319E07B689B681B681B6843
:10477000DB78002B08D17B68180000F07EFA03007C
:10478000012B01D1012309E07B689B681B681B6832
:1047900001229A707B6801221A7100231800BD461D
:1047A00002B080BD80B582B000AF78607B681B79B5
:1047B000002B01D1002319E07B689B681B681B68F4
:1047C000DB78002B08D17B68180000F068FA030042
:1047D000012B01D1012309E07B689B681B681B68E2
:1047E00000229A707B6800221A7100231800BD46CF
:1047F00002B080BD80B582B000AF786039603A68A1
:104800007B681100180000F05CFA03001800BD4638
:1048100002B080BD80B582B000AF78607B681800C0
:1048200000F064FA03001800BD4602B080BD80B5F8
:1048300082B000AF786039603A687B681100180078
:1048400000F076FA03001800BD4602B080BD80B5C6
:1048500082B000AF786039603A687B681100180058
:1048600000F0BCFA03001800BD4602B080BD80B560
:1048700082B000AF78600A00FB1C1A70FB1C1A782B
:104880007B681100180000F0E9FA03001800BD462B
:1048900002B080BD80B582B000AF786039603A6800
:1048A0007B68111C180000F019FB03001800BD46BE
:1048B00002B080BD80B584B000AFF8607A600B2094
:1048C0003B180A1C1A707A683B181978FB681800A4
:1048D00000F032FB0300012B01D1012300E0002393
:1048E0001800BD4604B080BD80B582B000AF7860CE
:1048F00008001100FB1C021C1A70BB1C0A1C1A7059
:10490000BB1C1A78FB1C19787B68180000F02FFB81
:104910000300012B01D1012300E000231800BD4654
:1049200002B080BD80B584B000AF786039600E23DE
:10493000FA180F23F9187B681800FFF78FFD0300A2
:10494000012B01D1012311E00F23FB181B78002B51
:1049500005D0012B07D13B6801221A7005E03B68A6
:1049600000221A7001E0012300E000231800BD4678
:1049700004B080BD80B582B000AF78607B689B6872
:104980001B681B681B78002B08D17B68180000F09F
:1049900045F90300012B01D1012309E07B689B68E5
:1049A0001B681B6801225A707B680122DA700023A1
:1049B0001800BD4602B080BD80B582B000AF7860FF
:1049C0007B689B681B681B681B78002B08D17B6881
:1049D000180000F03BF80300012B01D1012309E08E
:1049E0007B689B681B681B6800225A707B680022EA
:1049F000DA7000231800BD4602B080BD80B582B0D9
:104A000000AF78607B681B79012B01D1002319E08E
:104A10007B689B681B681B689B78002B08D17B68B0
:104A2000180000F02AF90300012B01D1012309E04D
:104A30007B689B681B681B680122DA707B68012217
:104A40001A7100231800BD4602B080BD80B582B047
:104A500000AF78607B681B79002B01D1002319E03F
:104A60007B689B681B681B689B78002B08D17B6860
:104A7000180000F014F90300012B01D1012309E013
:104A80007B689B681B681B680022DA707B680022C9
:104A90001A7100231800BD4602B080BD80B582B0F7
:104AA00000AF786039603A687B681100180000F048
:104AB00008F903001800BD4602B080BD80B582B081
:104AC00000AF78607B68180000F010F90300180050
:104AD000BD4602B080BD80B582B000AF786039605D
:104AE0003A687B681100180000F04CF903001800C8
:104AF000BD4602B080BD80B582B000AF786039603D
:104B00003A687B681100180000F068F9030018008B
:104B1000BD4602B080BD80B582B000AF78600A00AB
:104B2000FB1C1A70FB1C1A787B681100180000F03F
:104B300095F903001800BD4602B080BD80B582B073
:104B400000AF786039603A687B68111C180000F08B
:104B5000C5F903001800BD4602B080BD80B584B021
:104B600000AFF8607A600B203B180A1C1A707A6854
:104B70003B181978FB68180000F0DEF90300012BE0
:104B800001D1012300E000231800BD4604B080BD20
:104B900080B582B000AF786008001100FB1C021CD9
:104BA0001A70BB1C0A1C1A70BB1C1A78FB1C1978E3
:104BB0007B68180000F0DBF90300012B01D1012311
:104BC00000E000231800BD4602B080BD80B584B06F
:104BD00000AF786039600E23FA180F23F9187B684C
:104BE0001800FFF73BFC0300012B01D1012311E06A
:104BF0000E23FB181B78002B05D0012B07D13B6837
:104C000001221A7005E03B6800221A7001E00123BE
:104C100000E000231800BD4604B080BD80B582B01E
:104C200000AF78607B68180000F060F80300012B8B
:104C300001D101231DE07B681800FFF75CFC030035
:104C4000012B01D1012314E07B6801211800FFF73B
:104C500079FC0300012B01D101230AE07B680021CC
:104C6000180000F0FBF80300012B01D1012300E044
:104C700000231800BD4602B080BD80B582B000AFF1
:104C800078607B681800FFF70FFC0300012B01D14F
:104C9000012300E000231800BD4602B080BD80B5AE
:104CA00082B000AF78607B681800FFF724FC030037
:104CB000012B01D1012300E000231800BD4602B002
:104CC00080BD80B582B000AF786039603A687B689B
:104CD00011001800FFF716FA0300012B01D1012380
:104CE00000E000231800BD4602B080BD80B584B04E
:104CF00000AF78600F217B1800221A707A187B6849
:104D000011001800FFF7DDFF0300012B01D1012383
:104D100009E07B681A780F23FB181B789A4201D0B0
:104D2000012300E000231800BD4604B080BD000050
:104D300080B584B000AF786039600E217B18002206
:104D40001A807A187B6811001800FFF7EFF903004A
:104D5000012B01D101230FE00E23FB181B88180043
:104D6000FCF704FC031C0649181CFBF7EDFE031CB2
:104D70001A1C3B681A6000231800BD4604B080BDB1
:104D80000000204180B584B000AF786039600E210A
:104D90007B1800221A807A187B6811001800FFF730
:104DA0008BFA0300012B01D1012310E00E23FB1825
:104DB00000229B5E1800FCF793FB031C0649181C9D
:104DC000FBF7C2FE031C1A1C3B681A600023180084
:104DD000BD4604B080BDC0460000204180B584B00F
:104DE00000AF786039600F23FA187B681100180053
:104DF000FFF73CFC0300012B01D1012324E00F232A
:104E0000FB181B78032B15D018DC022B0ED015DCF9
:104E1000002B02D0012B04D010E03B6800221A6066
:104E200011E03B68FE2292051A600CE03B68084ADC
:104E30001A6008E03B68074A1A6004E03B68064ACB
:104E40001A60012300E000231800BD4604B080BDB5
:104E50000000E04000004841000080BF80B584B001
:104E600000AF78600A00FB1C1A70FB1C1B78042B37
:104E70001DD89A00184BD3181B689F460F23FB18A8
:104E800001221A7015E00F23FB1803221A7010E09C
:104E90000F23FB1803221A700BE00F23FB180322C9
:104EA0001A7006E00F23FB1803221A7001E0012399
:104EB0000DE00F23FB181A787B6811001800FFF72C
:104EC00089FB0300012B01D1012300E0002318001E
:104ED000BD4604B080BDC046C894020880B584B009
:104EE00000AF78603960FE2189053868FBF7E6FA83
:104EF000031E01D0012308E00E493868FBF7DEFAF3
:104F0000031E01D0022300E003230F217A1813703F
:104F10007B181A787B6811001800FFF75BFB030011
:104F2000012B01D1012300E000231800BD4604B08D
:104F300080BDC0460000E04080B584B000AFF8609E
:104F40007A600B203B180A1C1A707A683B18197893
:104F5000F86813000122FFF779F80300012B01D153
:104F6000012300E000231800BD4604B080BD80B5D9
:104F700082B000AF786008001100FB1C021C1A70A0
:104F8000BB1C0A1C1A70BA1CFB1C19787868130029
:104F90000122FFF789F80300012B01D1012300E072
:104FA00000231800BD4602B080BD90B585B000AFAB
:104FB000F86008007A6019000B243B19021C1A7073
:104FC00008203B180A1C1A803B181B88012B06D9A5
:104FD0003B193A191278802149420A431A70082372
:104FE000FB181C887A680B23FB181978F8682300D3
:104FF0000AF042FB031E01D0002300E00123180049
:10500000BD4605B090BD90B585B000AFF860080012
:105010007A6019000B243B19021C1A7008203B18F7
:105020000A1C1A803B181B88012B06D93B193A1918
:105030001278802149420A431A700823FB181C8801
:105040007A680B23FB181978F86823000AF038FBFC
:10505000031E01D0002300E001231800BD4605B067
:1050600090BD80B582B000AF786039603A687868EA
:1050700001234F21FFF7C7FF031E01D1002308E0E2
:105080003B681A783B681A703B681A783B681A705C
:1050900001231800BD4602B080BD80B584B000AFCA
:1050A00078600A00FB1C1A700F23FA187868012335
:1050B0002221FFF7A8FF031E01D100231AE00F21D0
:1050C0007B181B7803229343DAB27B181A707B1883
:1050D0001A78FB1C1B781343DAB27B181A707A1803
:1050E000786801232221FFF760FF031E01D100230E
:1050F00000E001231800BD4604B080BD80B584B037
:1051000000AF78600A00FB1C1A700F23FA18786849
:1051100001232421FFF777FF031E01D100231AE0AA
:105120000F217B181B7840229343DAB27B181A7048
:105130007B181A78FB1C1B781343DAB27B181A70A1
:105140007A18786801232421FFF72FFF031E01D16D
:10515000002300E001231800BD4604B080BD80B5E7
:1051600084B000AF78600A00FB1C1A700F23FA1895
:10517000786801232121FFF746FF031E01D1002398
:105180001AE00F217B181B7860229343DAB27B1858
:105190001A707B181A78FB1C1B781343DAB27B1841
:1051A0001A707A18786801232121FFF7FEFE031E8A
:1051B00001D1002300E001231800BD4604B080BDEA
:1051C00080B582B000AF786039603A6878680123B2
:1051D0002121FFF718FF031E01D1002307E03B68E0
:1051E0001B7860221340DAB23B681A700123180062
:1051F000BD4602B080BD80B584B000AF78600A00C3
:10520000FB1C1A700F23FA18786801232021FFF77E
:10521000FAFE031E01D100231AE00F217B181B7830
:105220001C229343DAB27B181A707B181A78FB1C85
:105230001B781343DAB27B181A707A187868012346
:105240002021FFF7B2FE031E01D1002300E001235D
:105250001800BD4604B080BD80B582B000AF786054
:1052600039603A68786801232021FFF7CCFE031EDD
:1052700001D1002307E03B681B781C221340DAB2FF
:105280003B681A7001231800BD4602B080BD80B58E
:1052900084B000AF786039600C23FB1802221A70CA
:1052A0000D23FB1800221A700F23FB1800221A701E
:1052B0002FE00E23FB1800221A701CE00D22BB18F1
:1052C0001B786833D9B2BB181B783A68D218786853
:1052D0000123FFF798FE031E01D100231FE00D21DB
:1052E0007B181A787B1801321A700E217B181A78F5
:1052F0007B1801321A700E23FA180C23FB1812784F
:105300001B789A42DAD30F217B181A787B18013266
:105310001A700F23FB181B78022BCAD9012318001F
:10532000BD4604B080BD80B584B000AF78600A008F
:10533000FB1C1A700F23FA18786801232021FFF74D
:1053400062FE031E01D100231AE00F217B181B7897
:1053500060229343DAB27B181A707B181A78FB1C10
:105360001B781343DAB27B181A707A187868012315
:105370002021FFF71AFE031E01D1002300E00123C4
:105380001800BD4604B080BD80B584B000AF786021
:105390000A00FB1C1A700F23FA18786801232021D9
:1053A000FFF731FE031E01D100231AE00F217B1805
:1053B0001B787F221340DAB27B181A707B181A7898
:1053C000FB1C1B781343DAB27B181A707A187868C2
:1053D00001232021FFF7E9FD031E01D1002300E096
:1053E00001231800BD4604B080BD80B582B000AF77
:1053F000786039603A68786801232721FFF703FE57
:10540000031E01D1002307E03B681B7808221340EC
:10541000DAB23B681A7001231800BD4602B080BDA5
:1054200080B582B000AF78607B68180000F0ADF8FE
:105430000300012B01D101233BE07B68022118000E
:10544000FFF72BFE031E01D1012332E07B684021D0
:105450001800FFF753FE031E01D1012329E07B68EA
:105460000421180000F0D0F90300012B01D1012321
:105470001FE07B680021180000F0A4FA0300012B54
:1054800001D1012315E07B6840211800FFF74BFF95
:10549000031E01D101230CE07B6800211800FFF7F7
:1054A00073FF031E01D1012303E07B680122DA7040
:1054B00000231800BD4602B080BD80B582B000AFA9
:1054C00078607B68180000F060F80300012B01D1C0
:1054D00001230CE07B68180000F028F80300012B82
:1054E00001D1012303E07B680022DA700023180059
:1054F000BD4602B080BD80B582B000AF78607B68E9
:105500001B79012B01D100230CE07B6800211800DE
:10551000FFF7C3FD031E01D1012303E07B680122D5
:105520001A7100231800BD4602B080BD80B582B05C
:1055300000AF78607B681B79002B01D100230CE061
:105540007B6802211800FFF7A8FD031E01D101238B
:1055500003E07B6800221A7100231800BD4602B0E8
:1055600080BD80B582B000AF786039603A687B68F2
:1055700011001800FFF775FD031E01D1012300E0A3
:1055800000231800BD4602B080BD80B584B000AFD6
:1055900078600F217B1800221A707A187B6811003E
:1055A0001800FFF7DEFF0300012B01D1012309E002
:1055B0007B681A780F23FB181B789A4201D00123CD
:1055C00000E000231800BD4604B080BD90B587B050
:1055D00000AF786039600023FB601023FA187B6805
:1055E0001100180000F0B4FA0300012B01D10123CF
:1055F00046E00C23FA187B681100180000F06AF8E6
:105600000300012B01D101233AE010243B190022B1
:105610009B5E1800FBF764FF021CFB68191C101C42
:10562000FBF75CFC031C181CFBF73AFF02003B680D
:105630001A603B1902229B5E1800FBF751FF021C07
:10564000FB68191C101CFBF749FC031C181CFBF71A
:1056500027FF02003B685A603B1904229B5E18003A
:10566000FBF73EFF021CFB68191C101CFBF736FC05
:10567000031C181CFBF714FF02003B689A60002310
:105680001800BD4607B090BD80B584B000AF78600B
:1056900039600823FA187B681100180000F058FAE6
:1056A0000300012B01D1012310E008217B18002207
:1056B0009A5E3B681A807B1802229A5E3B685A8089
:1056C0007B1804229A5E3B689A8000231800BD462E
:1056D00004B080BD80B584B000AF786039600F231E
:1056E000FA187B6811001800FFF76AFD031E01D14C
:1056F000012322E00F23FB181B78602B14D017DC4A
:10570000402B0DD014DC002B02D0202B04D00FE056
:105710003B680C4A1A600FE03B680B4A1A600BE0CA
:105720003B680A4A1A6007E03B68094A1A6003E0CE
:105730003B68084A1A60C04600231800BD4604B002
:1057400080BDC046295C0F3EE17A943EF628DC3EDF
:10575000E17A143F000080BF80B584B000AF78606C
:1057600039600F23FA187B6811001800FFF774FDE9
:10577000031E01D101232FE00F23FB181B781C2BE4
:1057800024D89A00164BD3181B689F463B68154ACD
:105790001A6020E03B68144A1A601CE03B68134A18
:1057A0001A6018E03B68124A1A6014E03B68114A1C
:1057B0001A6010E03B68104A1A600CE03B680F4A20
:1057C0001A6008E03B680E4A1A6004E03B680D4A24
:1057D0001A60012300E000231800BD4604B080BD1C
:1057E000DC9402080000203F0000A03F00002040A1
:1057F0000000A040000020410000A0410000204225
:105800000000A042000080BF80B584B000AF786087
:105810000A00FB1C1A70FB1C1B78042B1DD89A0075
:10582000174BD3181B689F460F23FB1804221A70CE
:1058300015E00F23FB1810221A7010E00F23FB183D
:1058400018221A700BE00F23FB181C221A7006E0B6
:105850000F23FB181C221A7001E001230CE00F2318
:10586000FB181A787B6811001800FFF7C4FC031EB0
:1058700001D1012300E000231800BD4604B080BD23
:105880005095020880B584B000AF78603960264931
:105890003868FAF713FE031E01D0002330E02349D5
:1058A0003868FAF70BFE031E01D0042328E02049D4
:1058B0003868FAF703FE031E01D0082320E01D49D3
:1058C0003868FAF7FBFD031E01D00C2318E01A49D3
:1058D0003868FAF7F3FD031E01D0102310E01749D2
:1058E0003868FAF7EBFD031E01D0142308E01449D1
:1058F0003868FAF7E3FD031E01D0182300E01C23EB
:105900000F217A1813707B181A787B681100180021
:10591000FFF771FC031E01D1012300E000231800F2
:10592000BD4604B080BDC0460000203F0000A03F3F
:10593000000020400000A040000020410000A041E5
:105940000000204280B584B000AF786039600F233A
:10595000FA187B6811001800FFF732FC031E01D112
:10596000012326E00F23FB181B78602B16D01ADCCE
:10597000402B0FD017DC002B02D0202B05D012E0DB
:105980003B688122D2051A6012E03B688222D20570
:105990001A600DE03B68094A1A6009E03B688322FF
:1059A000D2051A6004E03B68054A1A60012300E052
:1059B00000231800BD4604B080BDC0460000404131
:1059C000000080BF80B584B000AF78600A00FB1C87
:1059D0001A70FB1C1B78042B0FD013DC002B02D099
:1059E000022B05D00EE00F23FB1800221A700BE0EB
:1059F0000F23FB1820221A7006E00F23FB18402209
:105A00001A7001E001230CE00F23FB181A787B6861
:105A100011001800FFF7A3FB031E01D1012300E0D2
:105A200000231800BD4604B080BD000080B584B0DE
:105A300000AF786039608121C9053868FAF73EFD0A
:105A4000031E01D0002311E08221C9053868FAF74E
:105A500035FD031E01D0202308E00E493868FAF70F
:105A60002DFD031E01D0402300E060230F217A1892
:105A700013707B181A787B6811001800FFF76FFB12
:105A8000031E01D1012300E000231800BD4604B02D
:105A900080BDC0460000404180B584B000AFF860D2
:105AA0007A600B203B180A1C1A707A683B18197828
:105AB000F8680123FFF7A7FA031E01D1012300E0D4
:105AC00000231800BD4604B080BD80B582B000AF91
:105AD000786008001100FB1C021C1A70BB1C0A1C19
